S0170000736F6C646572696E6749726F6E76312E7372656307
S113000053C100006CC100007AC1000068C1000047
S113001066C1000064C1000062C1000060C100004C
S11300205EC100005CC100005AC1000058C100005C
S113003056C1000054C1000052C1000050C100006C
S113004076C500004CC100004AC1000048C1000050
S113005046C100002FC6000042C1000040C100009C
S11300603EC100003CC10000050000000000050086
S1130070005F000005000700070005147F147F14CB
S113008005242A7F2A12052313086462053649567B
S1130090205005080703000005001C22410005004C
S11300A041221C000514083E08140508083E0808EF
S11300B00500B07000000508080808080500606025
S11300C00000052010080402053E5149453E050084
S11300D0427F4000057249494946052141494D3353
S11300E0051814127F10052745454539053C4A4932
S11300F04931054121110907053649494936054663
S11301004949291E05000014000005004034000080
S11301100508142241000514141414140541221472
S11301200800050201590906053E415D594E057C4A
S11301301211127C057F49494936053E414141224D
S1130140057F4141413E057F49494949057F0909E8
S11301500909053E41415173057F0808087F0500E0
S1130160417F4100052040413F01057F08142241A1
S1130170057F40404040057F020C027F057F040854
S1130180107F053E4141413E057F09090906053EB0
S11301904151215E057F09192946052649494932FD
S11301A00501017F0101053F4040403F051F2040FC
S11301B0201F053F4038403F0563140814630503BE
S11301C00478040305615149454305007F4141001A
S11301D0050204081020050041417F0005040201C6
S11301E0020405404040404005070B000000052084
S11301F054547840057F28444438053844444428FE
S113020005384444287F0538545454180500087EA2
S113021009020518A4A49C78057F08040478050045
S1130220447D4000052040403D00057F10284400E7
S11302300500417F4000057C04780478057C0804AF
S1130240047805384444443805FC18242418051857
S1130250242418FC057C0804040805485454542438
S11302600504043F4424053C4040207C051C2040F8
S1130270201C053C4030403C054428102844054CD3
S11302809090907C054464544C4405000836410029
S1130290050000770000050041360800050402044B
S11302A0080405007F417F0011241FBECFEFD8E072
S11302B0DEBFCDBF11E0A0E0B1E0E8EFF0E102C0A5
S11302C005900D92A434B107D9F725E0A4E4B1E078
S11302D001C01D92A536B207E1F7BAD40BC790CE80
S11302E08AB18B7F8AB98AB1877F8AB9E9E6F0E05F
S11302F080818C6080838DB382608DBB08955B9B0D
S11303001BC00F930FB71F93109158011F5F1093D9
S11303105801109159011F4F1093590110915A011E
S11303201F4F10935A0110915B011F4F10935B01F3
S11303301F910FBF0F9118950F930FB71F93109133
S11303405801115010935801109159011040109305
S1130350590110915A01104010935A0110915B01F8
S1130360104010935B011F910FBF0F911895669574
S113037066956695E82FF0E080E8689FE00DF11D32
S11303801124EB59FE4F4083089566956695669552
S1130390E82FF0E080E8689FE00DF11D1124EB598F
S11303A0FE4F80810895CF93DF93DC01CB01FA01E6
S11303B020E322872187208727832683258324839C
S11303C02383228321832083BB234CF4B095A095FF
S11303D0909581959F4FAF4FBF4F31E008C030E0FB
S11303E006C09A5CAA49BB4321812F5F21838115F2
S11303F02AEC92072AE9A2072BE3B20794F706C076
S1130400915EA54FB54022812F5F2283811521EE95
S1130410920725EFA20725E0B20794F707C080589A
S11304209649A849B10923812F5F2383803826E99F
S1130430920728E9A207B10594F707C080549244B3
S1130440AF40B10924812F5F2483803422E49207D2
S11304502FE0A207B10594F707C0805A9648A1403F
S1130460B10925812F5F2583803A26E8920721E090
S1130470A207B10594F707C080519742A109B109B9
S113048026812F5F2683803127E29207A105B105DB
S11304909CF707C0885E9340A109B10927812F5FAB
S11304A02783883E23E09207A105B1059CF707C086
S11304B084569109A109B10920852F5F20878436CC
S11304C09105A105B105A4F706C00A97A109B109D0
S11304D021852F5F21878A309105A105B105ACF7ED
S11304E006C00197A109B10922852F5F228718163A
S11304F019061A061B06ACF320E001C02F5FDF01CA
S1130500A20FB11D8C918033C9F3332331F02150F4
S1130510DF01A20FB11D8DE28C934AE0421B30E053
S11305200DC0832F90E0EF01C80FD91F820F911DDA
S1130530DF01A80FB91F8C9188833F5F431788F7A9
S1130540E30FF11D1082DF91CF9108950F931F9354
S1130550CF93DF93C82F8B01D42F34D288E743D2B3
S11305608C2F41D2C0E006C0F801EC0FF11D808150
S11305703AD2CF5FCD17C0F32ED2DF91CF911F9126
S11305800F910895CF93DF931F92CDB7DEB7898380
S113059041E0BE016F5F7F4F80E0D8DF0F90DF91B5
S11305A0CF910895CF9381E2EDDF80E0EBDF8FE719
S11305B0E9DF82E2E7DF80E0E5DF87E0E3DFC0E058
S11305C00AC080E1C89FB00111246B597E4F40E1FD
S11305D080E4BCDFCF5FC034A0F3CF9108958823BB
S11305E014F080935C010895803410F480935D01CD
S11305F00895CF93C62FF3DF8C2FF6DFCF910895A4
S1130600C8D18EEABFDF85EDBDDF80EFBBDF88EAAE
S1130610B9DF8FE3B7DF83EDB5DF80E0B3DF8DE8CB
S1130620B1DF84E1AFDF80E4ADDF80E2ABDF80E007
S1130630A9DF81EAA7DF88ECA5DF8AEDA3DF82E1E9
S1130640A1DF81E89FDF8FEF9DDF89ED9BDF81EFE5
S113065099DF8BED97DF80E295DF84EA93DF86EA0A
S113066091DF8EE28FDF8FEA8DDF60E080E0C1DF13
S1130670ECE5F1E086EA8283178216821582118204
S1130680108208951F93CF93DF93182FD0E00AC0F0
S1130690412F6D2F8C2F6BDECF5F01C0C0E0CC23C8
S11306A0BCF7D85FD034D0F3DF91CF911F91089578
S11306B080E0E8CF08956623E4F04034D0F422309B
S11306C0C0F4ECE5F1E0948383836583468350E0D2
S11306D041505109CA0199230CF4079695958795C1
S11306E09595879595958795ECE5F1E08F5F8783E0
S11306F0208708954F925F926F927F928F929F927C
S1130700AF92BF92CF92DF92EF92FF920F931F931B
S1130710CF93DF93ACE5B1E05C9011964C901197C8
S1130720805215969C91159717962C911797929F26
S1130730900111242F5F3F4F829FA001839F500D92
S113074011241396ED91FC9114975A018FEFA81A76
S1130750B80AE40FF51F7490842D8770982E642CCA
S1130760812C5BC0662D852D44DF7501E80CF11CDE
S1130770670181E0C81AD10810E03FC080915F0191
S113078090916001FC01EE0DFF1D2491492D50E074
S113079030E0092C02C0220F331F0A94E2F7022F23
S11307A08820A1F0FC01EC0DFD1DE49188E090E0AF
S11307B0841B950BF0E002C0F595E7958A95E2F766
S11307C00E2F022B80916301C80ED11C809164010D
S11307D0813031F4ECE5F1E061818081D6DD082BD4
S11307E0CCE5D1E06981888191E0980F9883402F0E
S11307F0BEDD8F81E80EF11C1F5F171508F4BECF14
S113080080916401811106C0ECE5F1E040E0618172
S11308108081ADDD88E0680E839480916301881641
S113082008F4A0CF242D26952695269530E08091B6
S1130830620190E0840D911D0197AC0112F4495FAF
S11308405F4F559547955595479555954795241769
S1130850350709F441C08FE3861508F43DC0662DC1
S1130860852DC7DEA80CB11C81E0A81AB10800E0F0
S113087027C0CCE5D1E0F98018816F2D812F85DD6B
S1130880EB81FC81EA0DFB1D449128E030E029193D
S1130890310950E002C0559547952A95E2F7482B57
S11308A09885913009F4482BCCE5D1E081E0810FA3
S11308B088836F2D812F5BDD8F81A80EB11C0F5FA4
S11308C00715B8F280916401811106C0ECE5F1E0EE
S11308D040E0618180814BDD852D870D642D8F5F24
S11308E088DEDF91CF911F910F91FF90EF90DF9001
S11308F0CF90BF90AF909F908F907F906F905F90BC
S11309004F900895CF93DF93EC010CC0ECE5F1E038
S11309109081258130E0290F311D203831052CF4D8
S11309202196E8DE88818111F1CFDF91CF9108957E
S11309300F931F93CF93DF93CDB7DEB72C970FB6EA
S1130940F894DEBF0FBECDBF611571058105910519
S113095019F480E3CFDE12C061157105810520E82A
S1130960920761F08E010F5F1F4F2CE0F801119286
S11309702A95E9F7A80117DDC801C4DF2C960FB644
S1130980F894DEBF0FBECDBFDF91CF911F910F91C1
S1130990089587B1826087B987B1816087B988B1CA
S11309A0826088B988B1816088B91092B9008CE0FE
S11309B08093B80084E08093BC0008958091B900CE
S11309C0887F089584EA8093BC008091BC008823CA
S11309D0E4F7F4CF089585ED8093BC008091BC00CA
S11309E084FDFCCF08958093BB0084E88093BC0011
S11309F08091BC008823E4F7E1CF089583E48093D9
S1130A007C008FEA80937A0010927B0088E08093C8
S1130A107E0078940895EAE7F0E080818064808322
S1130A20089580E48AB983E884BD81E080936E00F0
S1130A3020E030E048EC52E46091480170914901B3
S1130A4080914A0190914B01CBD120E030E04FE7F7
S1130A5053E4EDD232D267BD789485E085BD089524
S1130A60CF92DF92EF92FF92CF93DF93C091520126
S1130A70D0915301D195C195D1098091560190919E
S1130A805701C81BD90BD0934D01C0934C01BE0133
S1130A900D2E000C880B990B3ED22091040130914D
S1130AA005014091060150910701C1D26B017C01FF
S1130AB08091500190915101BE01681B790B072E62
S1130AC0000C880B990B27D2209100013091010171
S1130AD04091020150910301AAD29B01AC01C701CC
S1130AE0B6011AD1E5D170934F0160934E0165367A
S1130AF0710528F010924F0110924E010DC0072E7F
S1130B00000C880B990B07D260934801709349013C
S1130B1080934A0190934B01D0935101C0935001AB
S1130B20DF91CF91FF90EF90DF90CF9008951F92C7
S1130B300F920FB60F9211242F933F934F935F930D
S1130B406F937F938F939F93AF93BF93EF93FF9391
S1130B5087DF20E030E048EC52E460914801709176
S1130B60490180914A0190914B013AD120E030E053
S1130B704FE753E45CD2A1D167BDFF91EF91BF91E0
S1130B80AF919F918F917F916F915F914F913F9121
S1130B902F910F900FBE0F901F901895E1E6F0E093
S1130BA080E8808310822CDD20E048E065E088E660
S1130BB090E081DD60E080E01CDD88E091E0A2DE71
S1130BC060E180E016DDEEDC2FEF89E698E121504C
S1130BD080409040E1F700C00000089560E180E0AB
S1130BE008DD8AE191E08EDE609156017091570133
S1130BF0072E000C880B990B9BDE68E180E0F9DC82
S1130C008CE291E07FDE609148017091490180910E
S1130C104A0190914B014CD18BDE60E280E0E9DC2B
S1130C2082E391E06FDE8091520190915301A09193
S1130C305401B09155019C01AD0166277727CB0182
S1130C40621B730B840B950B73DEACDC31CD089502
S1130C50A5DFD4DEE0DEE5DE43DB9FB7F89481E078
S1130C60882351F0C0905801D0905901E0905A0166
S1130C70F0905B0180E0F4CF9FBFC0925201D0920C
S1130C805301E0925401F0925501A8DFE6CF809120
S1130C90460190914701892B61F080914401909124
S1130CA04501909357018093560110924701109289
S1130CB0460108951F920F920FB60F9211242F939D
S1130CC03F934F935F936F937F938F939F93AF93D0
S1130CD0BF93EF93FF9381E090E09093470180935B
S1130CE0460180917800909179009093450180931A
S1130CF04401CDDFFF91EF91BF91AF919F918F910F
S1130D007F916F915F914F913F912F910F900FBE03
S1130D100F901F9018955058BB27AA270ED04DC18D
S1130D203ED130F043D120F031F49F3F11F41EF452
S1130D3033C10EF4E095E7FB29C1E92F4FD180F3CD
S1130D40BA17620773078407950718F071F49EF5C4
S1130D5067C10EF4E0950B2EBA2FA02D0B01B9013B
S1130D6090010C01CA01A0011124FF27591B99F01D
S1130D70593F50F4503E68F11A16F040A22F232F29
S1130D80342F4427585FF3CF469537952795A79579
S1130D90F0405395C9F77EF41F16BA0B620B730B20
S1130DA0840BBAF09150A1F0FF0FBB1F661F771F91
S1130DB0881FC2F70EC0BA0F621F731F841F48F446
S1130DC0879577956795B795F7959E3F08F0B3CFCC
S1130DD09395880F08F09927EE0F979587950895B6
S1130DE00CD0EBC0E3D040F0DAD030F021F45F3F18
S1130DF019F0CCC0511115C1CFC0F0D098F399238C
S1130E00C9F35523B1F3951B550BBB27AA276217CA
S1130E107307840738F09F5F5F4F220F331F441F0F
S1130E20AA1FA9F333D00E2E3AF0E0E830D0915047
S1130E305040E695001CCAF729D0FE2F27D0660F34
S1130E40771F881FBB1F261737074807AB07B0E873
S1130E5009F0BB0B802DBF01FF2793585F4F2AF089
S1130E609E3F510568F092C0DCC05F3FECF3983EB2
S1130E70DCF3869577956795B795F7959F5FC9F7E6
S1130E80880F911D9695879597F90895E1E0660F6F
S1130E90771F881FBB1F621773078407BA0720F0E8
S1130EA0621B730B840BBA0BEE1F88F7E095089551
S1130EB004D06894B111B5C0089598D088F09F57B4
S1130EC090F0B92F9927B751A0F0D1F0660F771F92
S1130ED0881F991F1AF0BA95C9F712C0B13081F072
S1130EE09FD0B1E008959CC0672F782F8827B85F02
S1130EF039F0B93FCCF3869577956795B395D9F7D3
S1130F003EF490958095709561957F4F8F4F9F4FDC
S1130F100895E89409C097FB3EF4909580957095E8
S1130F2061957F4F8F4F9F4F9923A9F0F92F96E931
S1130F30BB279395F695879577956795B795F111A6
S1130F40F8CFFAF4BB0F11F460FF1BC06F5F7F4F43
S1130F508F4F9F4F16C0882311F096E911C0772355
S1130F6021F09EE8872F762F05C0662371F096E85E
S1130F70862F70E060E02AF09A95660F771F881F2D
S1130F80DAF7880F9695879597F9089597F99F67EB
S1130F9080E870E060E008959FEF80EC08950024FD
S1130FA00A941616170618060906089500240A94CA
S1130FB012161306140605060895092E0394000C50
S1130FC011F4882352F0BB0F40F4BF2B11F460FFDF
S1130FD004C06F5F7F4F8F4F9F4F089557FD905808
S1130FE0440F551F59F05F3F71F04795880F97FBE9
S1130FF0991F61F09F3F79F08795089512161306A3
S11310001406551FF2CF4695F1DF08C016161706D1
S11310101806991FF1CF8695710561050894089506
S1131020E894BB2766277727CB0197F908950BD05F
S1131030C4CFB5DF28F0BADF18F0952309F0A6CFA6
S1131040ABCF1124EECFCADFA0F3959FD1F3950F58
S113105050E0551F629FF001729FBB27F00DB11D38
S1131060639FAA27F00DB11DAA1F649F6627B00DC8
S1131070A11D661F829F2227B00DA11D621F739FB1
S1131080B00DA11D621F839FA00D611D221F749FBF
S11310903327A00D611D231F849F600D211D822F06
S11310A0762F6A2F11249F5750408AF0E1F088234D
S11310B04AF0EE0FFF1FBB1F661F771F881F91505A
S11310C05040A9F79E3F510570F060CFAACF5F3F13
S11310D0ECF3983EDCF3869577956795B795F7958D
S11310E0E7959F5FC1F7FE2B880F911D9695879515
S10B10F097F90895F894FFCF6D
S11310F8CDCCCC3D0000803F536F6C646572696E43
S1131108672053746174696F6E0049726F6E20545E
S1131118656D70657261747572653A0044757479A9
S11311283A005365742054656D7065726174757204
S1071138653A000010
S9030000FC
